{
  "contractName": "JurStatus",
  "abi": [
    {
      "inputs": [],
      "payable": false,
      "stateMutability": "nonpayable",
      "type": "constructor"
    },
    {
      "anonymous": false,
      "inputs": [
        {
          "indexed": false,
          "internalType": "address",
          "name": "statusHolder",
          "type": "address"
        },
        {
          "indexed": false,
          "internalType": "bool",
          "name": "newState",
          "type": "bool"
        },
        {
          "indexed": false,
          "internalType": "uint256",
          "name": "timestamp",
          "type": "uint256"
        }
      ],
      "name": "StateChanged",
      "type": "event"
    },
    {
      "anonymous": false,
      "inputs": [
        {
          "indexed": false,
          "internalType": "address",
          "name": "statusHolder",
          "type": "address"
        },
        {
          "indexed": false,
          "internalType": "uint256",
          "name": "activationTime",
          "type": "uint256"
        },
        {
          "indexed": false,
          "internalType": "string",
          "name": "statusType",
          "type": "string"
        }
      ],
      "name": "StatusAdded",
      "type": "event"
    },
    {
      "constant": true,
      "inputs": [
        {
          "internalType": "address",
          "name": "",
          "type": "address"
        }
      ],
      "name": "status",
      "outputs": [
        {
          "internalType": "uint256",
          "name": "activationTime",
          "type": "uint256"
        },
        {
          "internalType": "bool",
          "name": "isActive",
          "type": "bool"
        },
        {
          "internalType": "string",
          "name": "statusType",
          "type": "string"
        }
      ],
      "payable": false,
      "stateMutability": "view",
      "type": "function"
    },
    {
      "constant": true,
      "inputs": [],
      "name": "statusCount",
      "outputs": [
        {
          "internalType": "uint256",
          "name": "",
          "type": "uint256"
        }
      ],
      "payable": false,
      "stateMutability": "view",
      "type": "function"
    },
    {
      "constant": true,
      "inputs": [
        {
          "internalType": "uint256",
          "name": "",
          "type": "uint256"
        }
      ],
      "name": "statusTypes",
      "outputs": [
        {
          "internalType": "string",
          "name": "",
          "type": "string"
        }
      ],
      "payable": false,
      "stateMutability": "view",
      "type": "function"
    },
    {
      "constant": false,
      "inputs": [
        {
          "internalType": "address",
          "name": "_statusHolder",
          "type": "address"
        },
        {
          "internalType": "uint256",
          "name": "_statusType",
          "type": "uint256"
        }
      ],
      "name": "addJurStatus",
      "outputs": [],
      "payable": false,
      "stateMutability": "nonpayable",
      "type": "function"
    },
    {
      "constant": false,
      "inputs": [
        {
          "internalType": "address",
          "name": "_statusHolder",
          "type": "address"
        },
        {
          "internalType": "bool",
          "name": "_newState",
          "type": "bool"
        }
      ],
      "name": "changeState",
      "outputs": [],
      "payable": false,
      "stateMutability": "nonpayable",
      "type": "function"
    },
    {
      "constant": false,
      "inputs": [
        {
          "internalType": "string",
          "name": "_statusType",
          "type": "string"
        }
      ],
      "name": "addStatusType",
      "outputs": [],
      "payable": false,
      "stateMutability": "nonpayable",
      "type": "function"
    }
  ],
  "bytecode": "0x608060405234801561001057600080fd5b50336000806101000a81548173ffffffffffffffffffffffffffffffffffffffff021916908373ffffffffffffffffffffffffffffffffffffffff160217905550610f5f806100606000396000f3fe608060405234801561001057600080fd5b50600436106100625760003560e01c80630d062d331461006757806311d92010146100b757806337cb4e2c14610105578063645b8b1b14610123578063b57bb11d146101f2578063eccc2cba146102ad575b600080fd5b6100b56004803603604081101561007d57600080fd5b81019080803573ffffffffffffffffffffffffffffffffffffffff169060200190929190803515159060200190929190505050610354565b005b610103600480360360408110156100cd57600080fd5b81019080803573ffffffffffffffffffffffffffffffffffffffff169060200190929190803590602001909291905050506106f3565b005b61010d610acf565b6040518082815260200191505060405180910390f35b6101656004803603602081101561013957600080fd5b81019080803573ffffffffffffffffffffffffffffffffffffffff169060200190929190505050610ad5565b604051808481526020018315151515815260200180602001828103825283818151815260200191508051906020019080838360005b838110156101b557808201518184015260208101905061019a565b50505050905090810190601f1680156101e25780820380516001836020036101000a031916815260200191505b5094505050505060405180910390f35b6102ab6004803603602081101561020857600080fd5b810190808035906020019064010000000081111561022557600080fd5b82018360208201111561023757600080fd5b8035906020019184600183028401116401000000008311171561025957600080fd5b91908080601f016020809104026020016040519081016040528093929190818152602001838380828437600081840152601f19601f820116905080830192505050505050509192919290505050610ba4565b005b6102d9600480360360208110156102c357600080fd5b8101908080359060200190929190505050610d03565b6040518080602001828103825283818151815260200191508051906020019080838360005b838110156103195780820151818401526020810190506102fe565b50505050905090810190601f1680156103465780820380516001836020036101000a031916815260200191505b509250505060405180910390f35b6000809054906101000a900473ffffffffffffffffffffffffffffffffffffffff1673ffffffffffffffffffffffffffffffffffffffff163373ffffffffffffffffffffffffffffffffffffffff1614610416576040517f08c379a00000000000000000000000000000000000000000000000000000000081526004018080602001828103825260138152602001807f416363657373206e6f74206772616e7465642e0000000000000000000000000081525060200191505060405180910390fd5b600073ffffffffffffffffffffffffffffffffffffffff168273ffffffffffffffffffffffffffffffffffffffff1614156104b9576040517f08c379a000000000000000000000000000000000000000000000000000000000815260040180806020018281038252601e8152602001807f506c6561652070726f7669646520612076616c696420616464726573732e000081525060200191505060405180910390fd5b6000600260008473ffffffffffffffffffffffffffffffffffffffff1673ffffffffffffffffffffffffffffffffffffffff168152602001908152602001600020600001541415610555576040517f08c379a0000000000000000000000000000000000000000000000000000000008152600401808060200182810382526023815260200180610f086023913960400191505060405180910390fd5b801515600260008473ffffffffffffffffffffffffffffffffffffffff1673ffffffffffffffffffffffffffffffffffffffff16815260200190815260200160002060010160009054906101000a900460ff161515141561061e576040517f08c379a000000000000000000000000000000000000000000000000000000000815260040180806020018281038252601d8152602001807f416c726561647920696e207468652073696d696c61722073746174652e00000081525060200191505060405180910390fd5b80600260008473ffffffffffffffffffffffffffffffffffffffff1673ffffffffffffffffffffffffffffffffffffffff16815260200190815260200160002060010160006101000a81548160ff0219169083151502179055507fb965fe859adbfcaf277bb9d21a5de534aa40f5a06a58dbf224de25d789b063a9828242604051808473ffffffffffffffffffffffffffffffffffffffff1673ffffffffffffffffffffffffffffffffffffffff16815260200183151515158152602001828152602001935050505060405180910390a15050565b6000809054906101000a900473ffffffffffffffffffffffffffffffffffffffff1673ffffffffffffffffffffffffffffffffffffffff163373ffffffffffffffffffffffffffffffffffffffff16146107b5576040517f08c379a00000000000000000000000000000000000000000000000000000000081526004018080602001828103825260138152602001807f416363657373206e6f74206772616e7465642e0000000000000000000000000081525060200191505060405180910390fd5b600073ffffffffffffffffffffffffffffffffffffffff168273ffffffffffffffffffffffffffffffffffffffff161415610858576040517f08c379a000000000000000000000000000000000000000000000000000000000815260040180806020018281038252601f8152602001807f506c656173652070726f7669646520612076616c696420616464726573732e0081525060200191505060405180910390fd5b60405180606001604052804281526020016001151581526020016001838154811061087f57fe5b906000526020600020018054600181600116156101000203166002900480601f01602080910402602001604051908101604052809291908181526020018280546001816001161561010002031660029004801561091d5780601f106108f25761010080835404028352916020019161091d565b820191906000526020600020905b81548152906001019060200180831161090057829003601f168201915b5050505050815250600260008473ffffffffffffffffffffffffffffffffffffffff1673ffffffffffffffffffffffffffffffffffffffff1681526020019081526020016000206000820151816000015560208201518160010160006101000a81548160ff02191690831515021790555060408201518160020190805190602001906109aa929190610dbc565b509050506003600081548092919060010191905055507fc4d9fcc4d32e8979ac4dd0d6eebc63fbf139c5419a5184ec6cf7b2d0f876024b8242600184815481106109f057fe5b90600052602060002001604051808473ffffffffffffffffffffffffffffffffffffffff1673ffffffffffffffffffffffffffffffffffffffff16815260200183815260200180602001828103825283818154600181600116156101000203166002900481526020019150805460018160011615610100020316600290048015610abb5780601f10610a9057610100808354040283529160200191610abb565b820191906000526020600020905b815481529060010190602001808311610a9e57829003601f168201915b505094505050505060405180910390a15050565b60035481565b60026020528060005260406000206000915090508060000154908060010160009054906101000a900460ff1690806002018054600181600116156101000203166002900480601f016020809104026020016040519081016040528092919081815260200182805460018160011615610100020316600290048015610b9a5780601f10610b6f57610100808354040283529160200191610b9a565b820191906000526020600020905b815481529060010190602001808311610b7d57829003601f168201915b5050505050905083565b6000809054906101000a900473ffffffffffffffffffffffffffffffffffffffff1673ffffffffffffffffffffffffffffffffffffffff163373ffffffffffffffffffffffffffffffffffffffff1614610c66576040517f08c379a00000000000000000000000000000000000000000000000000000000081526004018080602001828103825260138152602001807f416363657373206e6f74206772616e7465642e0000000000000000000000000081525060200191505060405180910390fd5b600081511415610cc1576040517f08c379a0000000000000000000000000000000000000000000000000000000008152600401808060200182810382526026815260200180610ee26026913960400191505060405180910390fd5b6001819080600181540180825580915050906001820390600052602060002001600090919290919091509080519060200190610cfe929190610e3c565b505050565b60018181548110610d1057fe5b906000526020600020016000915090508054600181600116156101000203166002900480601f016020809104026020016040519081016040528092919081815260200182805460018160011615610100020316600290048015610db45780601f10610d8957610100808354040283529160200191610db4565b820191906000526020600020905b815481529060010190602001808311610d9757829003601f168201915b505050505081565b828054600181600116156101000203166002900490600052602060002090601f016020900481019282601f10610dfd57805160ff1916838001178555610e2b565b82800160010185558215610e2b579182015b82811115610e2a578251825591602001919060010190610e0f565b5b509050610e389190610ebc565b5090565b828054600181600116156101000203166002900490600052602060002090601f016020900481019282601f10610e7d57805160ff1916838001178555610eab565b82800160010185558215610eab579182015b82811115610eaa578251825591602001919060010190610e8f565b5b509050610eb89190610ebc565b5090565b610ede91905b80821115610eda576000816000905550600101610ec2565b5090565b9056fe53746174757320747970652063616e6e6f7420626520616e20656d70747920737472696e672e41646472657373206973206e6f742061204a75722053746174757320686f6c6465722ea265627a7a723158205d920b0e9b507f59a87d90c55f8cafce956280cd179d20ae0f128c3bd184026064736f6c63430005100032",
  "source": "// SPDX-License-Identifier: MIT\npragma solidity >=0.4.22 <0.9.0;\n\ncontract JurStatus {\n    address owner;\n\n    /**\n    Struct defining the values of a status.\n    activationTime - The timestamp from which the status will be valid\n    isActive - booleans state depicting if a status is currently valid\n    statusType - The type of the status complementing the bussiness logic\n    */\n    struct Status {\n        uint activationTime;\n        bool isActive;\n        string statusType;\n    }\n\n    /** Dynamic array holding the status types */\n    string[] public statusTypes;\n\n    /** Mapping between the address of the Jur Status holders and their properties */\n    mapping(address  => Status) public status;\n\n    /** Total count of Jur Statuses. */\n    uint public statusCount;\n\n    event StateChanged(address statusHolder, bool newState, uint timestamp);\n    event StatusAdded(address statusHolder, uint activationTime, string statusType);\n\n    modifier onlyOwner() {\n        require(msg.sender == owner, \"Access not granted.\");\n        _;\n    }\n\n    constructor()\n    public {\n        owner = msg.sender;\n    }\n\n    /**\n    @dev addJurStatus - function to let the Jur admin add new address as a Jur Status, thus\n    validating it's license which can be verified on the blockchain.\n    @param _statusHolder - The address which will hold the Jur Status.\n    @param _statusType - The position of the value from the statusTypes array signifying the\n    status type.\n    */\n    function addJurStatus(\n    address _statusHolder,\n    uint _statusType\n    ) public\n    onlyOwner {\n        require(_statusHolder != address(0), \"Please provide a valid address.\");\n        status[_statusHolder] = Status(block.timestamp, true, statusTypes[_statusType]);\n        statusCount++;\n\n        emit StatusAdded(_statusHolder, block.timestamp, statusTypes[_statusType]);\n    }\n\n    /**\n    @dev changeState - function to let the Jur admin change the state of a status.\n    @param _statusHolder - The address holding the Jur Status.\n    @param _newState -  Boolean status to update.\n    */\n    function changeState(\n    address _statusHolder,\n    bool _newState\n    ) public\n    onlyOwner {\n        require(_statusHolder != address(0), \"Pleae provide a valid address.\");\n        require(status[_statusHolder].activationTime != 0, \"Address is not a Jur Status holder.\");\n        require(status[_statusHolder].isActive != _newState, \"Already in the similar state.\");\n        status[_statusHolder].isActive = _newState;\n\n        emit StateChanged(_statusHolder, _newState, block.timestamp);\n    }\n\n    /**\n    @dev addStatusType - function to let an admin add status types to support the bussiness\n    logic.\n    @param _statusType - The new status type.\n    */\n    function addStatusType(\n    string memory _statusType\n    ) public\n    onlyOwner {\n        require(bytes(_statusType).length != 0, \"Status type cannot be an empty string.\");\n        statusTypes.push(_statusType);\n    }\n}",
  "sourcePath": "/Users/chidumennamdi/Documents/developerse/jur-status/sm-contract/contracts/JurStatus.sol",
  "compiler": {
    "name": "solc",
    "version": "0.5.16+commit.9c3226ce.Emscripten.clang"
  },
  "schemaVersion": "3.3.3",
  "updatedAt": "2021-01-10T08:11:20.544Z",
  "networkType": "ethereum",
  "devdoc": {
    "methods": {
      "addJurStatus(address,uint256)": {
        "details": "addJurStatus - function to let the Jur admin add new address as a Jur Status, thus validating it's license which can be verified on the blockchain.",
        "params": {
          "_statusHolder": "- The address which will hold the Jur Status.",
          "_statusType": "- The position of the value from the statusTypes array signifying the status type."
        }
      },
      "addStatusType(string)": {
        "details": "addStatusType - function to let an admin add status types to support the bussiness logic.",
        "params": {
          "_statusType": "- The new status type."
        }
      },
      "changeState(address,bool)": {
        "details": "changeState - function to let the Jur admin change the state of a status.",
        "params": {
          "_newState": "-  Boolean status to update.",
          "_statusHolder": "- The address holding the Jur Status."
        }
      }
    }
  },
  "userdoc": {
    "methods": {}
  }
}