{
  "contractName": "JurStatus",
  "abi": [
    {
      "inputs": [],
      "payable": false,
      "stateMutability": "nonpayable",
      "type": "constructor"
    },
    {
      "anonymous": false,
      "inputs": [
        {
          "indexed": false,
          "internalType": "address",
          "name": "statusHolder",
          "type": "address"
        },
        {
          "indexed": false,
          "internalType": "bool",
          "name": "newState",
          "type": "bool"
        },
        {
          "indexed": false,
          "internalType": "uint256",
          "name": "timestamp",
          "type": "uint256"
        }
      ],
      "name": "StateChanged",
      "type": "event"
    },
    {
      "anonymous": false,
      "inputs": [
        {
          "indexed": false,
          "internalType": "address",
          "name": "statusHolder",
          "type": "address"
        },
        {
          "indexed": false,
          "internalType": "uint256",
          "name": "activationTime",
          "type": "uint256"
        },
        {
          "indexed": false,
          "internalType": "string",
          "name": "statusType",
          "type": "string"
        }
      ],
      "name": "StatusAdded",
      "type": "event"
    },
    {
      "constant": true,
      "inputs": [
        {
          "internalType": "address",
          "name": "",
          "type": "address"
        }
      ],
      "name": "status",
      "outputs": [
        {
          "internalType": "uint256",
          "name": "activationTime",
          "type": "uint256"
        },
        {
          "internalType": "bool",
          "name": "isActive",
          "type": "bool"
        },
        {
          "internalType": "string",
          "name": "statusType",
          "type": "string"
        }
      ],
      "payable": false,
      "stateMutability": "view",
      "type": "function"
    },
    {
      "constant": true,
      "inputs": [],
      "name": "statusCount",
      "outputs": [
        {
          "internalType": "uint256",
          "name": "",
          "type": "uint256"
        }
      ],
      "payable": false,
      "stateMutability": "view",
      "type": "function"
    },
    {
      "constant": true,
      "inputs": [
        {
          "internalType": "uint256",
          "name": "",
          "type": "uint256"
        }
      ],
      "name": "statusList",
      "outputs": [
        {
          "internalType": "address",
          "name": "",
          "type": "address"
        }
      ],
      "payable": false,
      "stateMutability": "view",
      "type": "function"
    },
    {
      "constant": true,
      "inputs": [
        {
          "internalType": "uint256",
          "name": "",
          "type": "uint256"
        }
      ],
      "name": "statusTypes",
      "outputs": [
        {
          "internalType": "string",
          "name": "",
          "type": "string"
        }
      ],
      "payable": false,
      "stateMutability": "view",
      "type": "function"
    },
    {
      "constant": false,
      "inputs": [
        {
          "internalType": "address",
          "name": "_statusHolder",
          "type": "address"
        },
        {
          "internalType": "uint256",
          "name": "_statusType",
          "type": "uint256"
        }
      ],
      "name": "addJurStatus",
      "outputs": [],
      "payable": false,
      "stateMutability": "nonpayable",
      "type": "function"
    },
    {
      "constant": false,
      "inputs": [
        {
          "internalType": "address",
          "name": "_statusHolder",
          "type": "address"
        },
        {
          "internalType": "bool",
          "name": "_newState",
          "type": "bool"
        }
      ],
      "name": "changeState",
      "outputs": [],
      "payable": false,
      "stateMutability": "nonpayable",
      "type": "function"
    },
    {
      "constant": false,
      "inputs": [
        {
          "internalType": "string",
          "name": "_statusType",
          "type": "string"
        }
      ],
      "name": "addStatusType",
      "outputs": [],
      "payable": false,
      "stateMutability": "nonpayable",
      "type": "function"
    },
    {
      "constant": true,
      "inputs": [],
      "name": "getStatusTypes",
      "outputs": [
        {
          "internalType": "string[]",
          "name": "",
          "type": "string[]"
        }
      ],
      "payable": false,
      "stateMutability": "view",
      "type": "function"
    },
    {
      "constant": true,
      "inputs": [],
      "name": "getStatusList",
      "outputs": [
        {
          "internalType": "address[]",
          "name": "",
          "type": "address[]"
        }
      ],
      "payable": false,
      "stateMutability": "view",
      "type": "function"
    },
    {
      "constant": true,
      "inputs": [],
      "name": "getStatusCount",
      "outputs": [
        {
          "internalType": "uint256",
          "name": "",
          "type": "uint256"
        }
      ],
      "payable": false,
      "stateMutability": "view",
      "type": "function"
    },
    {
      "constant": true,
      "inputs": [
        {
          "internalType": "address",
          "name": "_addr",
          "type": "address"
        }
      ],
      "name": "getJurStatusInfo",
      "outputs": [
        {
          "internalType": "uint256",
          "name": "activationTime",
          "type": "uint256"
        },
        {
          "internalType": "bool",
          "name": "isActive",
          "type": "bool"
        },
        {
          "internalType": "string",
          "name": "statusType",
          "type": "string"
        }
      ],
      "payable": false,
      "stateMutability": "view",
      "type": "function"
    }
  ],
  "bytecode": "0x608060405234801561001057600080fd5b50336000806101000a81548173ffffffffffffffffffffffffffffffffffffffff021916908373ffffffffffffffffffffffffffffffffffffffff160217905550611984806100606000396000f3fe608060405234801561001057600080fd5b50600436106100a95760003560e01c8063645b8b1b11610071578063645b8b1b14610166578063690f8429146101985780639a6cc193146101b6578063ace865e2146101d4578063b57bb11d146101f2578063eccc2cba1461020e576100a9565b80630d062d33146100ae57806311d92010146100ca57806337cb4e2c146100e65780634e9dc8761461010457806359de07d614610134575b600080fd5b6100c860048036036100c39190810190610fd9565b61023e565b005b6100e460048036036100df9190810190611015565b6104f2565b005b6100ee610814565b6040516100fb91906116b2565b60405180910390f35b61011e60048036036101199190810190611092565b61081a565b60405161012b91906114fc565b60405180910390f35b61014e60048036036101499190810190610fb0565b610856565b60405161015d9392919061170b565b60405180910390f35b610180600480360361017b9190810190610fb0565b6109d9565b60405161018f939291906116cd565b60405180910390f35b6101a0610aa8565b6040516101ad91906116b2565b60405180910390f35b6101be610ab2565b6040516101cb919061158c565b60405180910390f35b6101dc610b40565b6040516101e991906115ae565b60405180910390f35b61020c60048036036102079190810190611051565b610c29565b005b61022860048036036102239190810190611092565b610d3f565b60405161023591906115d0565b60405180910390f35b6000809054906101000a900473ffffffffffffffffffffffffffffffffffffffff1673ffffffffffffffffffffffffffffffffffffffff163373ffffffffffffffffffffffffffffffffffffffff16146102cd576040517f08c379a00000000000000000000000000000000000000000000000000000000081526004016102c490611672565b60405180910390fd5b600073ffffffffffffffffffffffffffffffffffffffff168273ffffffffffffffffffffffffffffffffffffffff16141561033d576040517f08c379a000000000000000000000000000000000000000000000000000000000815260040161033490611612565b60405180910390fd5b6000600260008473ffffffffffffffffffffffffffffffffffffffff1673ffffffffffffffffffffffffffffffffffffffff1681526020019081526020016000206000015414156103c3576040517f08c379a00000000000000000000000000000000000000000000000000000000081526004016103ba90611632565b60405180910390fd5b801515600260008473ffffffffffffffffffffffffffffffffffffffff1673ffffffffffffffffffffffffffffffffffffffff16815260200190815260200160002060010160009054906101000a900460ff1615151415610459576040517f08c379a000000000000000000000000000000000000000000000000000000000815260040161045090611652565b60405180910390fd5b80600260008473ffffffffffffffffffffffffffffffffffffffff1673ffffffffffffffffffffffffffffffffffffffff16815260200190815260200160002060010160006101000a81548160ff0219169083151502179055507fb965fe859adbfcaf277bb9d21a5de534aa40f5a06a58dbf224de25d789b063a98282426040516104e693929190611517565b60405180910390a15050565b6000809054906101000a900473ffffffffffffffffffffffffffffffffffffffff1673ffffffffffffffffffffffffffffffffffffffff163373ffffffffffffffffffffffffffffffffffffffff1614610581576040517f08c379a000000000000000000000000000000000000000000000000000000000815260040161057890611672565b60405180910390fd5b600073ffffffffffffffffffffffffffffffffffffffff168273ffffffffffffffffffffffffffffffffffffffff1614156105f1576040517f08c379a00000000000000000000000000000000000000000000000000000000081526004016105e890611692565b60405180910390fd5b60405180606001604052804281526020016001151581526020016001838154811061061857fe5b906000526020600020018054600181600116156101000203166002900480601f0160208091040260200160405190810160405280929190818152602001828054600181600116156101000203166002900480156106b65780601f1061068b576101008083540402835291602001916106b6565b820191906000526020600020905b81548152906001019060200180831161069957829003601f168201915b5050505050815250600260008473ffffffffffffffffffffffffffffffffffffffff1673ffffffffffffffffffffffffffffffffffffffff1681526020019081526020016000206000820151816000015560208201518160010160006101000a81548160ff0219169083151502179055506040820151816002019080519060200190610743929190610df8565b5090505060036000815480929190600101919050555060048290806001815401808255809150509060018203906000526020600020016000909192909190916101000a81548173ffffffffffffffffffffffffffffffffffffffff021916908373ffffffffffffffffffffffffffffffffffffffff160217905550507fc4d9fcc4d32e8979ac4dd0d6eebc63fbf139c5419a5184ec6cf7b2d0f876024b8242600184815481106107ef57fe5b906000526020600020016040516108089392919061154e565b60405180910390a15050565b60035481565b6004818154811061082757fe5b906000526020600020016000915054906101000a900473ffffffffffffffffffffffffffffffffffffffff1681565b6000806060600260008573ffffffffffffffffffffffffffffffffffffffff1673ffffffffffffffffffffffffffffffffffffffff16815260200190815260200160002060000154600260008673ffffffffffffffffffffffffffffffffffffffff1673ffffffffffffffffffffffffffffffffffffffff16815260200190815260200160002060010160009054906101000a900460ff16600260008773ffffffffffffffffffffffffffffffffffffffff1673ffffffffffffffffffffffffffffffffffffffff168152602001908152602001600020600201808054600181600116156101000203166002900480601f0160208091040260200160405190810160405280929190818152602001828054600181600116156101000203166002900480156109c55780601f1061099a576101008083540402835291602001916109c5565b820191906000526020600020905b8154815290600101906020018083116109a857829003601f168201915b505050505090509250925092509193909250565b60026020528060005260406000206000915090508060000154908060010160009054906101000a900460ff1690806002018054600181600116156101000203166002900480601f016020809104026020016040519081016040528092919081815260200182805460018160011615610100020316600290048015610a9e5780601f10610a7357610100808354040283529160200191610a9e565b820191906000526020600020905b815481529060010190602001808311610a8157829003601f168201915b5050505050905083565b6000600354905090565b60606004805480602002602001604051908101604052809291908181526020018280548015610b3657602002820191906000526020600020905b8160009054906101000a900473ffffffffffffffffffffffffffffffffffffffff1673ffffffffffffffffffffffffffffffffffffffff1681526020019060010190808311610aec575b5050505050905090565b60606001805480602002602001604051908101604052809291908181526020016000905b82821015610c20578382906000526020600020018054600181600116156101000203166002900480601f016020809104026020016040519081016040528092919081815260200182805460018160011615610100020316600290048015610c0c5780601f10610be157610100808354040283529160200191610c0c565b820191906000526020600020905b815481529060010190602001808311610bef57829003601f168201915b505050505081526020019060010190610b64565b50505050905090565b6000809054906101000a900473ffffffffffffffffffffffffffffffffffffffff1673ffffffffffffffffffffffffffffffffffffffff163373ffffffffffffffffffffffffffffffffffffffff1614610cb8576040517f08c379a0000000000000000000000000000000000000000000000000000000008152600401610caf90611672565b60405180910390fd5b600081511415610cfd576040517f08c379a0000000000000000000000000000000000000000000000000000000008152600401610cf4906115f2565b60405180910390fd5b6001819080600181540180825580915050906001820390600052602060002001600090919290919091509080519060200190610d3a929190610e78565b505050565b60018181548110610d4c57fe5b906000526020600020016000915090508054600181600116156101000203166002900480601f016020809104026020016040519081016040528092919081815260200182805460018160011615610100020316600290048015610df05780601f10610dc557610100808354040283529160200191610df0565b820191906000526020600020905b815481529060010190602001808311610dd357829003601f168201915b505050505081565b828054600181600116156101000203166002900490600052602060002090601f016020900481019282601f10610e3957805160ff1916838001178555610e67565b82800160010185558215610e67579182015b82811115610e66578251825591602001919060010190610e4b565b5b509050610e749190610ef8565b5090565b828054600181600116156101000203166002900490600052602060002090601f016020900481019282601f10610eb957805160ff1916838001178555610ee7565b82800160010185558215610ee7579182015b82811115610ee6578251825591602001919060010190610ecb565b5b509050610ef49190610ef8565b5090565b610f1a91905b80821115610f16576000816000905550600101610efe565b5090565b90565b600081359050610f2c816118fc565b92915050565b600081359050610f4181611913565b92915050565b600082601f830112610f5857600080fd5b8135610f6b610f6682611776565b611749565b91508082526020830160208301858383011115610f8757600080fd5b610f928382846118a9565b50505092915050565b600081359050610faa8161192a565b92915050565b600060208284031215610fc257600080fd5b6000610fd084828501610f1d565b91505092915050565b60008060408385031215610fec57600080fd5b6000610ffa85828601610f1d565b925050602061100b85828601610f32565b9150509250929050565b6000806040838503121561102857600080fd5b600061103685828601610f1d565b925050602061104785828601610f9b565b9150509250929050565b60006020828403121561106357600080fd5b600082013567ffffffffffffffff81111561107d57600080fd5b61108984828501610f47565b91505092915050565b6000602082840312156110a457600080fd5b60006110b284828501610f9b565b91505092915050565b60006110c783836110e7565b60208301905092915050565b60006110df8383611220565b905092915050565b6110f081611861565b82525050565b6110ff81611861565b82525050565b6000611110826117d7565b61111a818561181d565b9350611125836117a2565b8060005b8381101561115657815161113d88826110bb565b975061114883611803565b925050600181019050611129565b5085935050505092915050565b600061116e826117e2565b611178818561182e565b93508360208202850161118a856117b2565b8060005b858110156111c657848403895281516111a785826110d3565b94506111b283611810565b925060208a0199505060018101905061118e565b50829750879550505050505092915050565b6111e181611873565b82525050565b60006111f2826117f8565b6111fc8185611850565b935061120c8185602086016118b8565b611215816118eb565b840191505092915050565b600061122b826117ed565b611235818561183f565b93506112458185602086016118b8565b61124e816118eb565b840191505092915050565b6000611264826117ed565b61126e8185611850565b935061127e8185602086016118b8565b611287816118eb565b840191505092915050565b6000815460018116600081146112af57600181146112d557611319565b607f60028304166112c08187611850565b955060ff198316865260208601935050611319565b600282046112e38187611850565b95506112ee856117c2565b60005b82811015611310578154818901526001820191506020810190506112f1565b80880195505050505b505092915050565b600061132e602683611850565b91507f53746174757320747970652063616e6e6f7420626520616e20656d707479207360008301527f7472696e672e00000000000000000000000000000000000000000000000000006020830152604082019050919050565b6000611394601e83611850565b91507f506c6561652070726f7669646520612076616c696420616464726573732e00006000830152602082019050919050565b60006113d4602383611850565b91507f41646472657373206973206e6f742061204a75722053746174757320686f6c6460008301527f65722e00000000000000000000000000000000000000000000000000000000006020830152604082019050919050565b600061143a601d83611850565b91507f416c726561647920696e207468652073696d696c61722073746174652e0000006000830152602082019050919050565b600061147a601383611850565b91507f416363657373206e6f74206772616e7465642e000000000000000000000000006000830152602082019050919050565b60006114ba601f83611850565b91507f506c656173652070726f7669646520612076616c696420616464726573732e006000830152602082019050919050565b6114f68161189f565b82525050565b600060208201905061151160008301846110f6565b92915050565b600060608201905061152c60008301866110f6565b61153960208301856111d8565b61154660408301846114ed565b949350505050565b600060608201905061156360008301866110f6565b61157060208301856114ed565b81810360408301526115828184611292565b9050949350505050565b600060208201905081810360008301526115a68184611105565b905092915050565b600060208201905081810360008301526115c88184611163565b905092915050565b600060208201905081810360008301526115ea8184611259565b905092915050565b6000602082019050818103600083015261160b81611321565b9050919050565b6000602082019050818103600083015261162b81611387565b9050919050565b6000602082019050818103600083015261164b816113c7565b9050919050565b6000602082019050818103600083015261166b8161142d565b9050919050565b6000602082019050818103600083015261168b8161146d565b9050919050565b600060208201905081810360008301526116ab816114ad565b9050919050565b60006020820190506116c760008301846114ed565b92915050565b60006060820190506116e260008301866114ed565b6116ef60208301856111d8565b81810360408301526117018184611259565b9050949350505050565b600060608201905061172060008301866114ed565b61172d60208301856111d8565b818103604083015261173f81846111e7565b9050949350505050565b6000604051905081810181811067ffffffffffffffff8211171561176c57600080fd5b8060405250919050565b600067ffffffffffffffff82111561178d57600080fd5b601f19601f8301169050602081019050919050565b6000819050602082019050919050565b6000819050602082019050919050565b60008190508160005260206000209050919050565b600081519050919050565b600081519050919050565b600081519050919050565b600081519050919050565b6000602082019050919050565b6000602082019050919050565b600082825260208201905092915050565b600082825260208201905092915050565b600082825260208201905092915050565b600082825260208201905092915050565b600061186c8261187f565b9050919050565b60008115159050919050565b600073ffffffffffffffffffffffffffffffffffffffff82169050919050565b6000819050919050565b82818337600083830152505050565b60005b838110156118d65780820151818401526020810190506118bb565b838111156118e5576000848401525b50505050565b6000601f19601f8301169050919050565b61190581611861565b811461191057600080fd5b50565b61191c81611873565b811461192757600080fd5b50565b6119338161189f565b811461193e57600080fd5b5056fea365627a7a72315820cadd93d81cc88272410f4c5c60a7b0890d7e540ba1af50529a361b53099c10b36c6578706572696d656e74616cf564736f6c63430005100040",
  "source": "// SPDX-License-Identifier: MIT\npragma solidity >=0.4.22 <0.9.0;\npragma experimental ABIEncoderV2;\n\ncontract JurStatus {\n    address owner;\n\n    /**\n    Struct defining the values of a status.\n    activationTime - The timestamp from which the status will be valid\n    isActive - booleans state depicting if a status is currently valid\n    statusType - The type of the status complementing the bussiness logic\n    */\n    struct Status {\n        uint activationTime;\n        bool isActive;\n        string statusType;\n    }\n\n    /** Dynamic array holding the status types */\n    string[] public statusTypes;\n\n    /** Mapping between the address of the Jur Status holders and their properties */\n    mapping(address  => Status) public status;\n\n    /** Total count of Jur Statuses. */\n    uint public statusCount;\n    address[] public statusList;\n\n    event StateChanged(address statusHolder, bool newState, uint timestamp);\n    event StatusAdded(address statusHolder, uint activationTime, string statusType);\n\n    modifier onlyOwner() {\n        require(msg.sender == owner, \"Access not granted.\");\n        _;\n    }\n\n    constructor()\n    public {\n        owner = msg.sender;\n    }\n\n    /**\n    @dev addJurStatus - function to let the Jur admin add new address as a Jur Status, thus\n    validating it's license which can be verified on the blockchain.\n    @param _statusHolder - The address which will hold the Jur Status.\n    @param _statusType - The position of the value from the statusTypes array signifying the\n    status type.\n    */\n    function addJurStatus(\n    address _statusHolder,\n    uint _statusType\n    ) public\n    onlyOwner {\n        require(_statusHolder != address(0), \"Please provide a valid address.\");\n        status[_statusHolder] = Status(block.timestamp, true, statusTypes[_statusType]);\n        statusCount++;\n        statusList.push(_statusHolder);\n\n        emit StatusAdded(_statusHolder, block.timestamp, statusTypes[_statusType]);\n    }\n\n    /**\n    @dev changeState - function to let the Jur admin change the state of a status.\n    @param _statusHolder - The address holding the Jur Status.\n    @param _newState -  Boolean status to update.\n    */\n    function changeState(\n    address _statusHolder,\n    bool _newState\n    ) public\n    onlyOwner {\n        require(_statusHolder != address(0), \"Pleae provide a valid address.\");\n        require(status[_statusHolder].activationTime != 0, \"Address is not a Jur Status holder.\");\n        require(status[_statusHolder].isActive != _newState, \"Already in the similar state.\");\n        status[_statusHolder].isActive = _newState;\n\n        emit StateChanged(_statusHolder, _newState, block.timestamp);\n    }\n\n    /**\n    @dev addStatusType - function to let an admin add status types to support the bussiness\n    logic.\n    @param _statusType - The new status type.\n    */\n    function addStatusType(\n    string memory _statusType\n    ) public\n    onlyOwner {\n        require(bytes(_statusType).length != 0, \"Status type cannot be an empty string.\");\n        statusTypes.push(_statusType);\n    }\n\n    function getStatusTypes() external view returns (string[] memory) {\n        return statusTypes;\n    }\n\n    function getStatusList() external view returns (address[] memory) {\n        return statusList;\n    }\n\n    function getStatusCount() external view returns (uint) {\n        return statusCount;\n    }\n\n    function getJurStatusInfo(address _addr) external view returns (\n        uint activationTime,\n        bool isActive,\n        string memory statusType\n    ) {\n        return (\n            status[_addr].activationTime,\n            status[_addr].isActive,\n            status[_addr].statusType\n        );\n    }\n}",
  "sourcePath": "/Users/chidumennamdi/Documents/developerse/jur-status/sm-contract/contracts/JurStatus.sol",
  "compiler": {
    "name": "solc",
    "version": "0.5.16+commit.9c3226ce.Emscripten.clang"
  },
  "schemaVersion": "3.3.3",
  "updatedAt": "2021-01-10T19:07:39.299Z",
  "networkType": "ethereum",
  "devdoc": {
    "methods": {
      "addJurStatus(address,uint256)": {
        "details": "addJurStatus - function to let the Jur admin add new address as a Jur Status, thus validating it's license which can be verified on the blockchain.",
        "params": {
          "_statusHolder": "- The address which will hold the Jur Status.",
          "_statusType": "- The position of the value from the statusTypes array signifying the status type."
        }
      },
      "addStatusType(string)": {
        "details": "addStatusType - function to let an admin add status types to support the bussiness logic.",
        "params": {
          "_statusType": "- The new status type."
        }
      },
      "changeState(address,bool)": {
        "details": "changeState - function to let the Jur admin change the state of a status.",
        "params": {
          "_newState": "-  Boolean status to update.",
          "_statusHolder": "- The address holding the Jur Status."
        }
      }
    }
  },
  "userdoc": {
    "methods": {}
  }
}